:100000000C9400010C941D010C941D010C941D0115
:100010000C941D010C941D010C941D010C941D01E8
:100020000C941D010C941D010C9469050C94A305FE
:100030000C941D010C941D010C941D010C941D01C8
:100040000C941D010C941D010C941D010C941D01B8
:100050000C941D010C941D010C941D010C941D01A8
:100060000C941D010C941D010C941D010C941D0198
:100070000C941D010C94E6010C941D010C941D01BF
:100080000C941D010C941D010C941D010C941D0178
:100090000C941D010C941D010C941D010C941D0168
:1000A0000C941D010C941D010C941D015C01600158
:1000B000CE01CE016E0172017B017F0196019A0192
:1000C000A301A701B501B90112050E050A05060530
:1000D0000205FE04FA04F604F204EE04EA04E6045F
:1000E000E204DE04DA04D604D204CE04CA04C60450
:1000F000C204BE04BA04B604B204AE04AA04A60440
:10010000A2049E049A04960492048E048A0486042F
:1001100082047E047A04760472046E046A0466041F
:1001200062045E045A04560452044E044A0446040F
:1001300042043E043A04360432042E042A042604FF
:1001400022041E041A04160412040A00000100000E
:10015000E3011200020000A00143000300009C0123
:100160000401030904880112020309048001060343
:100170000309047601080803340031003000000050
:1001800006034D003200000012034A002E0020003A
:100190004600690065006E00650000000403090464
:1001A00009024300020100C03209040000010202FA
:1001B00001000524001001052401010104240206A8
:1001C0000524060001070582031000400904010010
:1001D000020A000000070503024000000705840230
:1001E0004000001201000202000010C0167A040054
:1001F00001010203010001C11201803601813600B4
:1002000011241FBECFEFDAE0DEBFCDBF11E0A0E0CA
:10021000B1E0E6E1F6E102C005900D92AC30B10725
:10022000D9F721E0ACE0B1E001C01D92AE31B207D8
:10023000E1F70E94F3070C94090B0C940000452B86
:1002400091F520917C00206420937C0020917A001D
:10025000246020937A00883091056CF440917E00F0
:1002600021E030E0082E01C0220F0A94EAF7242B87
:1002700020937E0010C08830910509F453C040914E
:100280007D0021E030E0082E01C0220F0A94EAF739
:10029000242B20937D006130710529F420917A0090
:1002A000206220937A008E30910508F077C0FC011F
:1002B000EA5AFF4F0C949D0A80917C008E7F03C008
:1002C00080917C00816080937C0080917C008D7F98
:1002D00080937C0080917C008B7F1EC080917C008D
:1002E0008E7F03C080917C00816080937C00809130
:1002F0007C008D7F0CC080917C008E7F03C080913C
:100300007C00816080937C0080917C00826080937F
:100310007C0080917C00846080937C0080917B00D5
:100320008F7D39C06130710509F4B8CF80917C00B0
:100330008E7F03C080917C00816080937C008091DF
:100340007C008D7F0CC080917C008E7F03C08091EB
:100350007C00816080937C0080917C00826080932F
:100360007C0080917C008B7F11C080917C008E7F0F
:1003700003C080917C00816080937C0080917C0030
:100380008D7F80937C0080917C00846080937C00D2
:1003900080917B00806280937B000895089501978F
:1003A00069F480917A00806880937A0080917A0065
:1003B000806480937A0081E090E0089580917A00D3
:1003C0008F7780937A0080E090E008951F920F92DB
:1003D0000FB60F9211242F933F934F935F936F9318
:1003E0007F938F939F93AF93BF93EF93FF938091EE
:1003F000100190911101019741F5809102019091B6
:1004000003012091780030917900FC01EE0FFF1F6D
:10041000E25FFE4F3183208301968830910514F00E
:1004200084E090E0909303018093020141E050E06A
:1004300061E070E080910201909103010E941F0130
:10044000109211011092100106C081E090E090938B
:10045000110180931001FF91EF91BF91AF919F9196
:100460008F917F916F915F914F913F912F910F905D
:100470000FBE0F901F9018959B01BC01625371092C
:100480006230710570F481E090E090930D018093EB
:100490000C0121153105E1F49093010180930001D5
:1004A00017C0660F771FC4973CF081E090E09093EF
:1004B0000D0180930C0107C071956195710910922F
:1004C0000D0110920C01109201011092000102C066
:1004D00060E070E080910C0190910D0181309105F8
:1004E00009F04AC06436710511F462E670E0072E27
:1004F000000C880B990B232B19F50E94A40920E00E
:1005000030E048EC52E40E94FA0820E030E04AE78C
:1005100054E40E94300A0E9473097093890060932A
:10052000880088EE93E09093870080938600809106
:10053000000190910101892B09F046C0589A089555
:100540000E94A40920E030E048EC52E40E94FA083E
:1005500020E030E04AE754E40E94300A0E94730928
:1005600070938B0060938A0088EE93E090938700ED
:100570008093860059980895892B09F042C064360B
:10058000710511F462E670E0072E000C880B990BE0
:10059000232BE1F40E94A40920E030E048EC52E46F
:1005A0000E94FA0820E030E04AE754E40E94300A52
:1005B0000E947309709389006093880088EE93E02D
:1005C0009093870080938600589808950E94A4090C
:1005D00020E030E048EC52E40E94FA0820E030E0ED
:1005E0004AE754E40E94300A0E94730970938B001A
:1005F00060938A0088EE93E0909387008093860052
:10060000599A08958091E80080FFFCCF089581E019
:100610008093D70080EA8093D80082E189BD09B435
:1006200000FEFDCF80E98093D8001092E000109288
:100630001501109212018CE08093E20078940895E5
:100640008091150108959FB7F89480911501882332
:1006500039F083E08093E9008091E80085FD03C0D4
:100660009FBF8FEF08958091F1002091E80025FD54
:1006700003C02BE62093E8009FBF08959FB7F8942E
:1006800080911501882331F083E08093E900809107
:10069000F20001C080E09FBF08958091150188237A
:1006A00071F08FB7F89493E09093E9002BE6909166
:1006B000E80095FF03C02093E800F9CF8FBF0895AD
:1006C00090911501992371F09FB7F89424E020933D
:1006D000E90020911301222349F02091E80025FD33
:1006E00003C09FBF8FEF0895109213012091E40083
:1006F000275E34E04091E80045FD12C09FBF909115
:10070000E400921304C081E080931301EBCF909139
:100710001501992339F39FB7F8943093E900EACF94
:100720008093F1008091E80085FD03C08AE3809307
:10073000E80085E0809314019FBF80E008959091C8
:1007400015019923D1F09FB7F89424E02093E90094
:100750002091E80025FD02C09FBF0FC08093F100EB
:100760008091E80085FD03C08AE38093E80085E07E
:10077000809314019FBF80E008958FEF08950F9339
:100780001F93CF93DF93DC01CB012091150122232E
:1007900071F02FB7F89434E03093E90030911301F1
:1007A000332349F03091E80035FD03C02FBF8FEFB0
:1007B00043C110921301C4E0D0E41AE305E00097AE
:1007C00009F438C13091E400375E4091E80045FDFE
:1007D00012C02FBF2091E400231304C081E0809356
:1007E0001301E5CF20911501222309F32FB7F894C7
:1007F000C093E900EACF3091F200ED2FE31B4E2FBA
:1008000050E08417950708F4E82F8E1B91094E2FAE
:1008100050E04134510508F001C1FA01EC59FF4F95
:100820000C949D0A3C913093F10011963C913093C9
:10083000F10011963C913093F10011963C91309368
:10084000F10011963C913093F10011963C91309358
:10085000F10011963C913093F10011963C91309348
:10086000F10011963C913093F10011963C91309338
:10087000F10011963C913093F10011963C91309328
:10088000F10011963C913093F10011963C91309318
:10089000F10011963C913093F10011963C91309308
:1008A000F10011963C913093F10011963C913093F8
:1008B000F10011963C913093F10011963C913093E8
:1008C000F10011963C913093F10011963C913093D8
:1008D000F10011963C913093F10011963C913093C8
:1008E000F10011963C913093F10011963C913093B8
:1008F000F10011963C913093F10011963C913093A8
:10090000F10011963C913093F10011963C91309397
:10091000F10011963C913093F10011963C91309387
:10092000F10011963C913093F10011963C91309377
:10093000F10011963C913093F10011963C91309367
:10094000F10011963C913093F10011963C91309357
:10095000F10011963C913093F10011963C91309347
:10096000F10011963C913093F10011963C91309337
:10097000F10011963C913093F10011963C91309327
:10098000F10011963C913093F10011963C91309317
:10099000F10011963C913093F10011963C91309307
:1009A000F10011963C913093F10011963C913093F7
:1009B000F10011963C913093F10011963C913093E7
:1009C000F10011963C913093F10011963C913093D7
:1009D000F10011963C913093F10011963C913093C7
:1009E000F10011963C913093F10011963C913093B7
:1009F000F10011963C913093F10011963C913093A7
:100A0000F10011963C913093F10011963C91309396
:100A1000F10011963C913093F10011963C91309386
:100A2000F10011963091E80035FF1093E800009333
:100A30001401C5CE2FBF80E0DF91CF911F910F91A0
:100A400008958FB7F89490911401992341F094E0A0
:100A50009093E9009AE39093E800109214018FBFFD
:100A60000895809108010895809109010895809169
:100A70000A0108958091120108959FB7F89420917A
:100A80001501222339F022E02093E9003091E8009B
:100A900035FD03C09FBF8FEF089531EA3093F10019
:100AA00030E23093F1001092F1001092F1001092B8
:100AB000F1001092F1002093F1001092F100809368
:100AC000F1001092F1008AE38093E8009FBF80E07C
:100AD00008951F920F920FB60F9211248F939F9338
:100AE0008091E1001092E10083FF11C01092E900B3
:100AF00091E09093EB001092EC0092E19093ED0066
:100B000098E09093F000109215011092120182FF6C
:100B100013C080911501882379F0809114018823F6
:100B200059F0815080931401811106C084E08093B4
:100B3000E9008AE38093E8009F918F910F900FBEA8
:100B40000F901F9018951F920F920FB60F921124BD
:100B5000EF92FF920F931F932F933F934F935F93C7
:100B60006F937F938F939F93AF93BF93EF93FF9375
:100B7000CF93DF931F92CDB7DEB71092E90080913B
:100B8000E80083FF14C19091F1008091F100009181
:100B9000F1002091F10010E0122B3091F100209132
:100BA000F100E32EF12CF22A2091F1006091F10086
:100BB00032EF3093E800863009F046C036E08CE42E
:100BC00091E0FC01459154914017510739F4FC0123
:100BD0003296459154914E155F0521F0079631509C
:100BE00081F7E5C0FC01349645915491FC0136969D
:100BF000849130E0362B2F3F310519F010F02FEFA4
:100C000030E0281708F4822F3EEF9091E800292F5A
:100C10002570D9F392FDCEC0982F813108F090E174
:100C2000FA01292F222331F064916093F1002150C1
:100C30003196F8CF490F511D891B3093E80081117F
:100C4000E4CF903111F3B6C0853049F48EEF809334
:100C5000E8000E94020300680093E300ABC0893003
:100C600059F59111A4C00093150110921201109230
:100C700014018EEF8093E80041E085EF91E040930E
:100C8000E9009C012F5F3F4FFC0154915093EB0012
:100C9000552359F0F90124912093EC009C012D5F1C
:100CA0003F4F319684918093ED004F5F453011F0B6
:100CB000C901E5CF8EE176C0883051F4903809F053
:100CC00076C00E940203809115018093F10048C014
:100CD000813279F4913A09F06AC00E940203E4E09B
:100CE000F1E087E08E0F91919093F1008E13FBCF8E
:100CF00037C08032A1F4913209F059C08091E800E8
:100D000082FFFCCFE4E0F1E087E08E0F9091F100EC
:100D100091938E13FBCF8BEF8093E80021C082323A
:100D200041F4913209F043C0009312010E94020382
:100D300017C0811119C099830E94020399819238CA
:100D400051F4E092E9008091EB0085FB882780F95F
:100D50001092E90001C080E08093F1001092F10050
:100D60008EEF8093E80026C0282F2D7F2130F9F4E4
:100D70009230E9F4012BD9F42E2D2F779FEF920FAB
:100D80009430A8F49EEF9093E8002093E90083301C
:100D900071F089E18093EB0081E090E001C0880F61
:100DA0002A95EAF78093EA001092EA0003C081E2F4
:100DB0008093EB000F90DF91CF91FF91EF91BF9166
:100DC000AF919F918F917F916F915F914F913F91E3
:100DD0002F911F910F91FF90EF900F900FBE0F90EA
:100DE0001F9018951F93CF93DF93EC01FE01149190
:100DF000112351F01A3019F48DE00E946003812F05
:100E00000E9460032196F2CFDF91CF911F91089548
:100E10008A3010F097E301C090E3890F0C946003CF
:100E2000CF93C82F82958F700E9408078C2F8F70E8
:100E3000CF910C940807CF93C82F892F0E941007D9
:100E40008C2FCF910C9410070C941007EF92FF9207
:100E50000F931F93CF93DF93CDB7DEB727970FB6CE
:100E6000F894DEBF0FBECDBF8E010F5F1F4F27E08E
:100E7000F80111922A95E9F74AE0B8010E94A30A05
:100E80007E01F8E0EF0EF11CF80181918F018111D4
:100E90000E9460030E151F05B9F727960FB6F89448
:100EA000DEBF0FBECDBFDF91CF911F910F91FF909D
:100EB000EF900895EF92FF920F931F93CF93DF93DC
:100EC00000D000D000D0CDB7DEB78E010F5F1F4F2E
:100ED00026E0F80111922A95E9F74AE0B8010E944C
:100EE000DF0A7E01F6E0EF0EF11CF80181918F011F
:100EF00081110E9460030E151F05B9F726960FB6E3
:100F0000F894DEBF0FBECDBFDF91CF911F910F913F
:100F1000FF90EF900895EF92FF920F931F93CF935E
:100F2000DF93CDB7DEB72B970FB6F894DEBF0FBEB9
:100F3000CDBF8E010F5F1F4F2BE0F80111922A9554
:100F4000E9F72AE0A8010E94AE0A7E01FCE0EF0E5C
:100F5000F11CF80181918F0181110E9460030E152F
:100F60001F05B9F72B960FB6F894DEBF0FBECDBFA5
:100F7000DF91CF911F910F91FF90EF900895EF9225
:100F8000FF920F931F93CF93DF93CDB7DEB72B97CD
:100F90000FB6F894DEBF0FBECDBF8E010F5F1F4F9F
:100FA0002BE0F80111922A95E9F72AE0A8010E94A6
:100FB000BD0A7E01FBE0EF0EF11CF80181918F016B
:100FC00081110E9460030E151F05B9F72B960FB60D
:100FD000F894DEBF0FBECDBFDF91CF911F910F916F
:100FE000FF90EF9008950E9407030E94200388233A
:100FF000E1F380E88093610081E0809361002D9AA5
:101000002E9A2F9A80918000806880938000809132
:10101000800080628093800080918000886080934F
:1010200080008091810080618093810080918100A7
:10103000886080938100809180008260809380002E
:1010400080918100826080938100469A8091900017
:1010500080688093900080919100806180939100DE
:1010600080919100886080939100809190008260CF
:101070008093900080919100826080939100259AE6
:10108000269A279A3E9A509A519A40E050E061E0A1
:1010900070E084E090E00E941F0140E050E061E0D9
:1010A00070E085E090E00E941F0140E050E061E0C8
:1010B00070E086E090E00E941F0140E050E061E0B7
:1010C00070E087E090E00E941F012FEF81EE94E036
:1010D000215080409040E1F700C0000081E090E0A6
:1010E0000E94CF0180917A00886080937A00789482
:1010F00008EE13E096E1E92E91E0F92EC0E0D0E091
:10110000F701619171917F01072E000C880B990BFB
:101110000E94A40924E13EEA43E251E40E94FA0855
:101120000E946C09DC01CB016C01C230D10524F4B2
:10113000BE010E943C0258C0C230D10561F58897BB
:10114000459738F0FDE3CF16D10434F06AE570E03E
:1011500005C060E070E002C062E370E0072E000CA2
:10116000880B990B0E94A40920E030E048EC52E47F
:101170000E94FA0820E030E04AE754E40E94300A76
:101180000E947309709399006093980010939700E0
:101190000093960029C0823691051CF082E6C82E85
:1011A000D12CC6010E945A078AE491E00E94F206FF
:1011B000B601DD0C880B990B0E94A40920E030E0F9
:1011C00048EC52E40E94FA0820E030E04AE754E498
:1011D0000E94300A0E94730970938D0060938C0006
:1011E00010938700009386002196C430D10509F042
:1011F00087CF80CF0E940E090C94F6090E94EF0958
:1012000058F00E94E80940F029F45F3F29F00C945F
:10121000DF0951110C942A0A0C94E5090E94070A6F
:1012200068F39923B1F3552391F3951B550BBB2715
:10123000AA2762177307840738F09F5F5F4F220F5A
:10124000331F441FAA1FA9F335D00E2E3AF0E0E851
:1012500032D091505040E695001CCAF72BD0FE2F9B
:1012600029D0660F771F881FBB1F2617370748072F
:10127000AB07B0E809F0BB0B802DBF01FF279358E7
:101280005F4F3AF09E3F510578F00C94DF090C94C3
:101290002A0A5F3FE4F3983ED4F3869577956795E5
:1012A000B795F7959F5FC9F7880F911D969587951C
:1012B00097F90895E1E0660F771F881FBB1F62173B
:1012C00073078407BA0720F0621B730B840BBA0BF9
:1012D000EE1F88F7E09508950E9473096894B11194
:1012E0000C942A0A08950E940F0A88F09F5798F0DC
:1012F000B92F9927B751B0F0E1F0660F771F881F1B
:10130000991F1AF0BA95C9F714C0B13091F00E9434
:10131000290AB1E008950C94290A672F782F8827AD
:10132000B85F39F0B93FCCF3869577956795B3955B
:10133000D9F73EF490958095709561957F4F8F4FCA
:101340009F4F0895E89409C097FB3EF490958095CF
:10135000709561957F4F8F4F9F4F9923A9F0F92F7B
:1013600096E9BB279395F695879577956795B795F9
:10137000F111F8CFFAF4BB0F11F460FF1BC06F5FDF
:101380007F4F8F4F9F4F16C0882311F096E911C0F1
:10139000772321F09EE8872F762F05C0662371F012
:1013A00096E8862F70E060E02AF09A95660F771F26
:1013B000881FDAF7880F9695879597F9089597F91A
:1013C0009F6780E870E060E008959FEF80EC0895EB
:1013D00000240A9416161706180609060895002414
:1013E0000A9412161306140605060895092E03948E
:1013F000000C11F4882352F0BB0F40F4BF2B11F402
:1014000060FF04C06F5F7F4F8F4F9F4F089557FD60
:101410009058440F551F59F05F3F71F04795880F62
:1014200097FB991F61F09F3F79F0879508951216F9
:1014300013061406551FF2CF4695F1DF08C01616A5
:1014400017061806991FF1CF869571056105089456
:101450000895E894BB2766277727CB0197F908956D
:101460000E94430A0C94F6090E94E80938F00E9491
:10147000EF0920F0952311F00C94DF090C94E50995
:1014800011240C942A0A0E94070A70F3959FC1F355
:10149000950F50E0551F629FF001729FBB27F00D22
:1014A000B11D639FAA27F00DB11DAA1F649F662777
:1014B000B00DA11D661F829F2227B00DA11D621FC6
:1014C000739FB00DA11D621F839FA00D611D221F80
:1014D000749F3327A00D611D231F849F600D211D64
:1014E000822F762F6A2F11249F5750409AF0F1F0E7
:1014F00088234AF0EE0FFF1FBB1F661F771F881F50
:1015000091505040A9F79E3F510580F00C94DF099F
:101510000C942A0A5F3FE4F3983ED4F386957795BE
:101520006795B795F795E7959F5FC1F7FE2B880FF5
:10153000911D9695879597F90895EE0FFF1F0590D9
:10154000F491E02D0994BB274A3031F4992322F419
:10155000BDE2909581959F4F0C94E00ABB272A30FD
:1015600051F4992342F4BDE2909580957095619570
:101570007F4F8F4F9F4F0C94BE0ABB27FA01A62FB7
:101580006217710581059105330B30FB66F0AA27C0
:10159000660F771F881F991FAA1FA21710F0A21BA2
:1015A00063953850A9F7A05DAA3308F0A95DA1930F
:1015B00036F7B111B1931082CA010C94F90ABB2716
:1015C000FB015527AA27880F991FAA1FA41710F0FF
:1015D000A41B83955051B9F7A05DAA3308F0A95D0B
:1015E000A193009779F7B111B1931192CB010C94AB
:1015F000F90ADC01FC01672F71917723E1F732973B
:1016000004C07C916D9370836291AE17BF07C8F3DD
:061610000895F894FFCFDD
:0C1616000100040000E1000000000800DA
:00000001FF
