:100000000C94FF000C941C010C941C010C941C011A
:100010000C941C010C941C010C941C010C941C01EC
:100020000C941C010C941C010C94A7040C94E10486
:100030000C941C010C941C010C941C010C941C01CC
:100040000C941C010C941C010C941C010C941C01BC
:100050000C941C010C941C010C941C010C941C01AC
:100060000C941C010C941C010C941C010C941C019C
:100070000C941C010C94EA010C941C010C941C01BE
:100080000C941C010C941C010C941C010C941C017C
:100090000C941C010C941C010C941C010C941C016C
:1000A0000C941C010C941C010C941C015B015F015D
:1000B000D201D2016D0171017A018D019A019E0177
:1000C000A701AB01B901BD0150044C04480444042C
:1000D00040043C043804340430042C042804240470
:1000E00020041C041804140410040C040804040460
:1000F0000004FC03F803F403F003EC03E803E40357
:10010000E003DC03D803D403D003CC03C803C40347
:10011000C003BC03B803B403B003AC03A803A40337
:10012000A0039C039803940390038C038803840327
:1001300080037C037803740370036C036803640317
:1001400060035C0358035403500300010000E10105
:1001500012000200009E0143000300009A01040106
:10016000030904860112020309047E010603030940
:100170000474010808033400310030000000060355
:100180004D003200000012034A002E0020004600FD
:10019000690065006E00650000000403090409029F
:1001A0004300020100C03209040000010202010004
:1001B0000524001001052401010104240206052480
:1001C0000600010705820310004009040100020A2D
:1001D00000000007050302400000070584024000FC
:1001E000001201000202000010C0167A0400010192
:1001F0000203010001C11201803601813600112481
:100200001FBECFEFDAE0DEBFCDBF11E0A0E0B1E06E
:10021000EAE3F0E102C005900D92AA30B107D9F7E8
:1002200021E0AAE0B1E001C01D92A831B207E1F7D8
:100230000E9431070C941B080C940000452B91F58B
:1002400020917C00206420937C0020917A0024601F
:1002500020937A00883091056CF440917E0021E073
:1002600030E0082E01C0220F0A94EAF7242B2093D5
:100270007E0010C08830910509F458C040917D007F
:1002800021E030E0082E01C0220F0A94EAF7242B67
:1002900020937D006130710529F420917A0020625D
:1002A00020937A008E30910508F07CC0FC01EA5A58
:1002B000FF4F0C94AF0780917C008E7F03C080912C
:1002C0007C00816080937C0080917C008D7F809396
:1002D0007C0080917C008B7F1AC080917C008E7F97
:1002E00003C080917C00816080937C0080917C00C1
:1002F0008D7F08C080917C008E7F80937C008091F0
:100300007C00826080937C0080917C00846080937C
:100310007C0080917B008F7D42C080917C008E7F2D
:1003200080937C0080917C0082602FC061307105D9
:1003300009F4B3CF80917C008E7F03C080917C0054
:10034000816080937C0080917C008D7F0CC08091C7
:100350007C008E7F03C080917C00816080937C0054
:1003600080917C00826080937C0080917C008B7FF8
:1003700011C080917C008E7F03C080917C008160E1
:1003800080937C0080917C008D7F80937C008091A5
:100390007C00846080937C0080917B0080628093ED
:1003A0007B0008950895019769F480917A00806830
:1003B00080937A0080917A00806480937A0081E053
:1003C00090E0089580917A008F7780937A0080E0A2
:1003D00090E008951F920F920FB60F9211242F9361
:1003E0003F934F935F936F937F938F939F93AF93BD
:1003F000BF93EF93FF9380910C0190910D010197B2
:1004000041F5809100019091010120917800309197
:100410007900FC01EE0FFF1FE65FFE4F3183208362
:1004200001968730910514F084E090E090930101EB
:100430008093000141E050E061E070E080910001B4
:10044000909101010E941E0110920D0110920C0169
:1004500006C081E090E090930D0180930C01FF9124
:10046000EF91BF91AF919F918F917F916F915F912C
:100470004F913F912F910F900FBE0F901F901895A5
:100480008091E80080FFFCCF089581E08093D70041
:1004900080EA8093D80082E189BD09B400FEFDCFD7
:1004A00080E98093D8001092E00010921101109220
:1004B0000E018CE08093E200789408958091110100
:1004C00008959FB7F89480911101882339F083E053
:1004D0008093E9008091E80085FD03C09FBF8FEF06
:1004E00008958091F1002091E80025FD03C02BE6DE
:1004F0002093E8009FBF08959FB7F8948091110161
:10050000882331F083E08093E9008091F20001C0FC
:1005100080E09FBF089580911101882371F08FB70B
:10052000F89493E09093E9002BE69091E80095FF12
:1005300003C02093E800F9CF8FBF08959091110177
:10054000992371F09FB7F89424E02093E90020915B
:100550000F01222349F02091E80025FD03C09FBF31
:100560008FEF089510920F012091E400275E34E090
:100570004091E80045FD12C09FBF9091E4009213A6
:1005800004C081E080930F01EBCF9091110199237A
:1005900039F39FB7F8943093E900EACF8093F100E4
:1005A0008091E80085FD03C08AE38093E80085E040
:1005B000809310019FBF80E00895909111019923CD
:1005C000D1F09FB7F89424E02093E9002091E8004F
:1005D00025FD02C09FBF0FC08093F1008091E8000D
:1005E00085FD03C08AE38093E80085E080931001D5
:1005F0009FBF80E008958FEF08950F931F93CF93CF
:10060000DF93DC01CB0120911101222371F02FB780
:10061000F89434E03093E90030910F01332349F02E
:100620003091E80035FD03C02FBF8FEF43C110921A
:100630000F01C4E0D0E41AE305E0009709F438C1E3
:100640003091E400375E4091E80045FD12C02FBFB5
:100650002091E400231304C081E080930F01E5CFD3
:1006600020911101222309F32FB7F894C093E900D8
:10067000EACF3091F200ED2FE31B4E2F50E08417AC
:10068000950708F4E82F8E1B91094E2F50E0413456
:10069000510508F001C1FA01EC59FF4F0C94AF0766
:1006A0003C913093F10011963C913093F1001196FA
:1006B0003C913093F10011963C913093F1001196EA
:1006C0003C913093F10011963C913093F1001196DA
:1006D0003C913093F10011963C913093F1001196CA
:1006E0003C913093F10011963C913093F1001196BA
:1006F0003C913093F10011963C913093F1001196AA
:100700003C913093F10011963C913093F100119699
:100710003C913093F10011963C913093F100119689
:100720003C913093F10011963C913093F100119679
:100730003C913093F10011963C913093F100119669
:100740003C913093F10011963C913093F100119659
:100750003C913093F10011963C913093F100119649
:100760003C913093F10011963C913093F100119639
:100770003C913093F10011963C913093F100119629
:100780003C913093F10011963C913093F100119619
:100790003C913093F10011963C913093F100119609
:1007A0003C913093F10011963C913093F1001196F9
:1007B0003C913093F10011963C913093F1001196E9
:1007C0003C913093F10011963C913093F1001196D9
:1007D0003C913093F10011963C913093F1001196C9
:1007E0003C913093F10011963C913093F1001196B9
:1007F0003C913093F10011963C913093F1001196A9
:100800003C913093F10011963C913093F100119698
:100810003C913093F10011963C913093F100119688
:100820003C913093F10011963C913093F100119678
:100830003C913093F10011963C913093F100119668
:100840003C913093F10011963C913093F100119658
:100850003C913093F10011963C913093F100119648
:100860003C913093F10011963C913093F100119638
:100870003C913093F10011963C913093F100119628
:100880003C913093F10011963C913093F100119618
:100890003C913093F10011963C913093F100119608
:1008A0003091E80035FF1093E80000931001C5CEA9
:1008B0002FBF80E0DF91CF911F910F9108958FB7E7
:1008C000F89490911001992341F094E09093E900FD
:1008D0009AE39093E800109210018FBF08958091E1
:1008E00006010895809107010895809108010895F7
:1008F00080910E0108959FB7F89420911101222351
:1009000039F022E02093E9003091E80035FD03C082
:100910009FBF8FEF089531EA3093F10030E23093BA
:10092000F1001092F1001092F1001092F10010927B
:10093000F1002093F1001092F1008093F1001092E9
:10094000F1008AE38093E8009FBF80E008951F9242
:100950000F920FB60F9211248F939F938091E10015
:100960001092E10083FF11C01092E90091E0909392
:10097000EB001092EC0092E19093ED0098E09093E0
:10098000F0001092110110920E0182FF13C08091AD
:100990001101882379F080911001882359F081504A
:1009A00080931001811106C084E08093E9008AE3FE
:1009B0008093E8009F918F910F900FBE0F901F9032
:1009C00018951F920F920FB60F921124EF92FF927B
:1009D0000F931F932F933F934F935F936F937F9347
:1009E0008F939F93AF93BF93EF93FF93CF93DF9337
:1009F0001F92CDB7DEB71092E9008091E80083FF27
:100A000014C19091F1008091F1000091F1002091CA
:100A1000F10010E0122B3091F1002091F100E32E53
:100A2000F12CF22A2091F1006091F10032EF309325
:100A3000E800863009F046C036E08AE491E0FC0127
:100A4000459154914017510739F4FC013296459174
:100A500054914E155F0521F00796315081F7E5C09E
:100A6000FC01349645915491FC013696849130E016
:100A7000362B2F3F310519F010F02FEF30E02817FB
:100A800008F4822F3EEF9091E800292F2570D9F3CA
:100A900092FDCEC0982F813108F090E1FA01292F04
:100AA000222331F064916093F10021503196F8CF08
:100AB000490F511D891B3093E8008111E4CF90311B
:100AC00011F3B6C0853049F48EEF8093E8000E94A0
:100AD000400200680093E300ABC0893059F59111E2
:100AE000A4C00093110110920E01109210018EEF1C
:100AF0008093E80041E083EF91E04093E9009C019E
:100B00002F5F3F4FFC0154915093EB00552359F058
:100B1000F90124912093EC009C012D5F3F4F319609
:100B200084918093ED004F5F453011F0C901E5CF0E
:100B30008EE176C0883051F4903809F076C00E947A
:100B40004002809111018093F10048C0813279F414
:100B5000913A09F06AC00E944002E2E0F1E087E0C9
:100B60008E0F91919093F1008E13FBCF37C080329E
:100B7000A1F4913209F059C08091E80082FFFCCFC6
:100B8000E2E0F1E087E08E0F9091F10091938E13F7
:100B9000FBCF8BEF8093E80021C0823241F4913289
:100BA00009F043C000930E010E94400217C081115A
:100BB00019C099830E9440029981923851F4E092C1
:100BC000E9008091EB0085FB882780F91092E9000D
:100BD00001C080E08093F1001092F1008EEF8093CD
:100BE000E80026C0282F2D7F2130F9F49230E9F457
:100BF000012BD9F42E2D2F779FEF920F9430A8F46C
:100C00009EEF9093E8002093E900833071F089E132
:100C10008093EB0081E090E001C0880F2A95EAF70D
:100C20008093EA001092EA0003C081E28093EB0017
:100C30000F90DF91CF91FF91EF91BF91AF919F9175
:100C40008F917F916F915F914F913F912F911F9164
:100C50000F91FF90EF900F900FBE0F901F9018957F
:100C60001F93CF93DF93EC01FE011491112351F0F8
:100C70001A3019F48DE00E949E02812F0E949E027C
:100C80002196F2CFDF91CF911F9108958A3010F015
:100C900097E301C090E3890F0C949E02CF93C82F75
:100CA00082958F700E9446068C2F8F70CF910C9486
:100CB0004606CF93C82F892F0E944E068C2FCF91C6
:100CC0000C944E060C944E06EF92FF920F931F93D6
:100CD000CF93DF93CDB7DEB727970FB6F894DEBF7B
:100CE0000FBECDBF8E010F5F1F4F27E0F80111929D
:100CF0002A95E9F74AE0B8010E94B5077E01F8E0BD
:100D0000EF0EF11CF80181918F0181110E949E026A
:100D10000E151F05B9F727960FB6F894DEBF0FBE64
:100D2000CDBFDF91CF911F910F91FF90EF9008956C
:100D3000EF92FF920F931F93CF93DF9300D000D0D9
:100D400000D0CDB7DEB78E010F5F1F4F26E0F80150
:100D500011922A95E9F74AE0B8010E94F1077E0155
:100D6000F6E0EF0EF11CF80181918F0181110E94D4
:100D70009E020E151F05B9F726960FB6F894DEBF32
:100D80000FBECDBFDF91CF911F910F91FF90EF90DC
:100D90000895EF92FF920F931F93CF93DF93CDB7F8
:100DA000DEB72B970FB6F894DEBF0FBECDBF8E0116
:100DB0000F5F1F4F2BE0F80111922A95E9F72AE007
:100DC000A8010E94C0077E01FCE0EF0EF11CF801B3
:100DD00081918F0181110E949E020E151F05B9F7A6
:100DE0002B960FB6F894DEBF0FBECDBFDF91CF912B
:100DF0001F910F91FF90EF900895EF92FF920F9344
:100E00001F93CF93DF93CDB7DEB72B970FB6F89430
:100E1000DEBF0FBECDBF8E010F5F1F4F2BE0F8016D
:100E200011922A95E9F72AE0A8010E94CF077E01D6
:100E3000FBE0EF0EF11CF80181918F0181110E94FE
:100E40009E020E151F05B9F72B960FB6F894DEBF5C
:100E50000FBECDBFDF91CF911F910F91FF90EF900B
:100E6000089580E88093610081E0809361002D9A6D
:100E70002E9A80918000806880938000809180000D
:100E800080628093800080918100806180938100E6
:100E900080918100886080938100809180008260D1
:100EA0008093800080918100826080938100509ABD
:100EB00051985298599A5A9A40E050E061E070E097
:100EC00084E090E00E941E0140E050E061E070E0AC
:100ED00085E090E00E941E0140E050E061E070E09B
:100EE00086E090E00E941E012FEF81EE94E02150F9
:100EF00080409040E1F700C0000081E090E00E9457
:100F0000D30180917A00886080937A0078944A991E
:100F10000EC0589A2FEF89E698E12150804090400A
:100F2000E1F700C000005898E2E1F1E007C04999FC
:100F3000FBCFEFCF21E0E831F20749F381919191A6
:100F400085369105BCF3589A2FEF89E698E1215038
:100F500080409040E1F700C000005898EBCFEE0FC2
:100F6000FF1F0590F491E02D0994BB274A3031F41E
:100F7000992322F4BDE2909581959F4F0C94F2073E
:100F8000BB272A3051F4992342F4BDE29095809515
:100F9000709561957F4F8F4F9F4F0C94D007BB2763
:100FA000FA01A62F6217710581059105330B30FBFD
:100FB00066F0AA27660F771F881F991FAA1FA2171E
:100FC00010F0A21B63953850A9F7A05DAA3308F072
:100FD000A95DA19336F7B111B1931082CA010C94A7
:100FE0000B08BB27FB015527AA27880F991FAA1FAB
:100FF000A41710F0A41B83955051B9F7A05DAA3334
:1010000008F0A95DA193009779F7B111B1931192FE
:10101000CB010C940B08DC01FC01672F7191772345
:10102000E1F7329704C07C916D9370836291AE17A3
:0A103000BF07C8F30895F894FFCF3E
:0A103A00040000E1000000000800BF
:00000001FF
